{
  "contractName": "Certifier",
  "abi": [
    {
      "constant": true,
      "inputs": [],
      "name": "name",
      "outputs": [
        {
          "name": "",
          "type": "string"
        }
      ],
      "payable": false,
      "stateMutability": "view",
      "type": "function"
    },
    {
      "constant": true,
      "inputs": [],
      "name": "last_completed_migration",
      "outputs": [
        {
          "name": "",
          "type": "uint256"
        }
      ],
      "payable": false,
      "stateMutability": "view",
      "type": "function"
    },
    {
      "constant": true,
      "inputs": [],
      "name": "owner",
      "outputs": [
        {
          "name": "",
          "type": "address"
        }
      ],
      "payable": false,
      "stateMutability": "view",
      "type": "function"
    },
    {
      "inputs": [],
      "payable": false,
      "stateMutability": "nonpayable",
      "type": "constructor"
    },
    {
      "constant": true,
      "inputs": [],
      "name": "isOwner",
      "outputs": [
        {
          "name": "",
          "type": "bool"
        }
      ],
      "payable": false,
      "stateMutability": "view",
      "type": "function"
    },
    {
      "constant": false,
      "inputs": [
        {
          "name": "_name",
          "type": "string"
        }
      ],
      "name": "setName",
      "outputs": [],
      "payable": false,
      "stateMutability": "nonpayable",
      "type": "function"
    },
    {
      "constant": false,
      "inputs": [
        {
          "name": "_code",
          "type": "bytes32"
        },
        {
          "name": "_name",
          "type": "string"
        },
        {
          "name": "_cost",
          "type": "uint256"
        },
        {
          "name": "_duration",
          "type": "uint256"
        },
        {
          "name": "_threshold",
          "type": "uint256"
        },
        {
          "name": "_codes",
          "type": "bytes32[]"
        }
      ],
      "name": "addCourse",
      "outputs": [],
      "payable": false,
      "stateMutability": "nonpayable",
      "type": "function"
    },
    {
      "constant": true,
      "inputs": [
        {
          "name": "_code",
          "type": "bytes32"
        }
      ],
      "name": "getCourse",
      "outputs": [
        {
          "name": "",
          "type": "string"
        },
        {
          "name": "",
          "type": "uint256"
        },
        {
          "name": "",
          "type": "uint256"
        },
        {
          "name": "",
          "type": "uint256"
        },
        {
          "name": "",
          "type": "bytes32[]"
        }
      ],
      "payable": false,
      "stateMutability": "view",
      "type": "function"
    },
    {
      "constant": false,
      "inputs": [
        {
          "name": "_code",
          "type": "bytes32"
        },
        {
          "name": "_fname",
          "type": "string"
        },
        {
          "name": "_lname",
          "type": "string"
        },
        {
          "name": "_age",
          "type": "uint256"
        },
        {
          "name": "_email",
          "type": "string"
        }
      ],
      "name": "subscribe",
      "outputs": [],
      "payable": true,
      "stateMutability": "payable",
      "type": "function"
    }
  ],
  "bytecode": "0x608060405234801561001057600080fd5b50336000806101000a81548173ffffffffffffffffffffffffffffffffffffffff021916908373ffffffffffffffffffffffffffffffffffffffff160217905550610cdb806100606000396000f30060806040526004361061008e576000357c0100000000000000000000000000000000000000000000000000000000900463ffffffff16806306fdde0314610093578063445df0ac146101235780638da5cb5b1461014e5780638f32d59b146101a5578063987b57b9146101d4578063bd11bc51146102db578063c47f0027146103db578063fdf8aad314610444575b600080fd5b34801561009f57600080fd5b506100a861051c565b6040518080602001828103825283818151815260200191508051906020019080838360005b838110156100e85780820151818401526020810190506100cd565b50505050905090810190601f1680156101155780820380516001836020036101000a031916815260200191505b509250505060405180910390f35b34801561012f57600080fd5b506101386105ba565b6040518082815260200191505060405180910390f35b34801561015a57600080fd5b506101636105c0565b604051808273ffffffffffffffffffffffffffffffffffffffff1673ffffffffffffffffffffffffffffffffffffffff16815260200191505060405180910390f35b3480156101b157600080fd5b506101ba6105e5565b604051808215151515815260200191505060405180910390f35b3480156101e057600080fd5b50610203600480360381019080803560001916906020019092919050505061063c565b604051808060200186815260200185815260200184815260200180602001838103835288818151815260200191508051906020019080838360005b8381101561025957808201518184015260208101905061023e565b50505050905090810190601f1680156102865780820380516001836020036101000a031916815260200191505b50838103825284818151815260200191508051906020019060200280838360005b838110156102c25780820151818401526020810190506102a7565b5050505090500197505050505050505060405180910390f35b6103d96004803603810190808035600019169060200190929190803590602001908201803590602001908080601f0160208091040260200160405190810160405280939291908181526020018383808284378201915050505050509192919290803590602001908201803590602001908080601f016020809104026020016040519081016040528093929190818152602001838380828437820191505050505050919291929080359060200190929190803590602001908201803590602001908080601f01602080910402602001604051908101604052809392919081815260200183838082843782019150505050505091929192905050506107dc565b005b3480156103e757600080fd5b50610442600480360381019080803590602001908201803590602001908080601f016020809104026020016040519081016040528093929190818152602001838380828437820191505050505050919291929050505061099c565b005b34801561045057600080fd5b5061051a6004803603810190808035600019169060200190929190803590602001908201803590602001908080601f016020809104026020016040519081016040528093929190818152602001838380828437820191505050505050919291929080359060200190929190803590602001909291908035906020019092919080359060200190820180359060200190808060200260200160405190810160405280939291908181526020018383602002808284378201915050505050509192919290505050610a11565b005b60038054600181600116156101000203166002900480601f0160208091040260200160405190810160405280929190818152602001828054600181600116156101000203166002900480156105b25780601f10610587576101008083540402835291602001916105b2565b820191906000526020600020905b81548152906001019060200180831161059557829003601f168201915b505050505081565b60015481565b6000809054906101000a900473ffffffffffffffffffffffffffffffffffffffff1681565b60008060009054906101000a900473ffffffffffffffffffffffffffffffffffffffff1673ffffffffffffffffffffffffffffffffffffffff163373ffffffffffffffffffffffffffffffffffffffff1614905090565b60606000806000606060008060009054906101000a900473ffffffffffffffffffffffffffffffffffffffff1673ffffffffffffffffffffffffffffffffffffffff163373ffffffffffffffffffffffffffffffffffffffff161415156106a257600080fd5b60026000886000191660001916815260200190815260200160002090508060000181600101548260020154836003015484600401848054600181600116156101000203166002900480601f01602080910402602001604051908101604052809291908181526020018280546001816001161561010002031660029004801561076b5780601f106107405761010080835404028352916020019161076b565b820191906000526020600020905b81548152906001019060200180831161074e57829003601f168201915b50505050509450808054806020026020016040519081016040528092919081815260200182805480156107c157602002820191906000526020600020905b815460001916815260200190600101908083116107a9575b50505050509050955095509550955095505091939590929450565b60006729a2241af62c00003414151561085d576040517f08c379a00000000000000000000000000000000000000000000000000000000081526004018080602001828103825260208152602001807f596f7520686176656e27742073656e742065786163746c79203320657468657281525060200191505060405180910390fd5b600260008760001916600019168152602001908152602001600020905060a06040519081016040528086815260200185815260200184815260200183815260200160006040519080825280602002602001820160405280156108ce5781602001602082028038833980820191505090505b508152508160050160003373ffffffffffffffffffffffffffffffffffffffff1673ffffffffffffffffffffffffffffffffffffffff168152602001908152602001600020600082015181600001908051906020019061092f929190610b12565b50602082015181600101908051906020019061094c929190610b12565b50604082015181600201556060820151816003019080519060200190610973929190610b12565b506080820151816004019080519060200190610990929190610b92565b50905050505050505050565b6000809054906101000a900473ffffffffffffffffffffffffffffffffffffffff1673ffffffffffffffffffffffffffffffffffffffff163373ffffffffffffffffffffffffffffffffffffffff161415156109f757600080fd5b8060039080519060200190610a0d929190610be5565b5050565b6000809054906101000a900473ffffffffffffffffffffffffffffffffffffffff1673ffffffffffffffffffffffffffffffffffffffff163373ffffffffffffffffffffffffffffffffffffffff16141515610a6c57600080fd5b60a060405190810160405280868152602001858152602001848152602001838152602001828152506002600088600019166000191681526020019081526020016000206000820151816000019080519060200190610acb929190610b12565b506020820151816001015560408201518160020155606082015181600301556080820151816004019080519060200190610b06929190610b92565b50905050505050505050565b828054600181600116156101000203166002900490600052602060002090601f016020900481019282601f10610b5357805160ff1916838001178555610b81565b82800160010185558215610b81579182015b82811115610b80578251825591602001919060010190610b65565b5b509050610b8e9190610c65565b5090565b828054828255906000526020600020908101928215610bd4579160200282015b82811115610bd3578251829060001916905591602001919060010190610bb2565b5b509050610be19190610c8a565b5090565b828054600181600116156101000203166002900490600052602060002090601f016020900481019282601f10610c2657805160ff1916838001178555610c54565b82800160010185558215610c54579182015b82811115610c53578251825591602001919060010190610c38565b5b509050610c619190610c65565b5090565b610c8791905b80821115610c83576000816000905550600101610c6b565b5090565b90565b610cac91905b80821115610ca8576000816000905550600101610c90565b5090565b905600a165627a7a7230582008c381f26d96ffa5e83a20dd9cc0da0eb71273f9d7667db6b10bb487bcafb7420029",
  "source": "pragma solidity ^0.4.23;\n\ncontract Certifier {\n    address public owner;\n    uint public last_completed_migration;\n    mapping(bytes32 => Course) courses;\n    string public name;\n\n    struct Course {\n        string name;\n        uint cost;\n        uint duration;\n        uint threshold;\n        bytes32[] codes;\n        mapping(address => Student) students;\n    }\n\n    struct Student {\n        string fname;\n        string lname;\n        uint age;\n        string email;\n        bytes32[] codes;\n    }\n\n    constructor() public {\n        owner = msg.sender;\n    }\n\n    modifier onlyOwner() {\n        require(msg.sender == owner);\n        _;\n    }\n\n    function isOwner() public view returns (bool) {\n        return msg.sender == owner;\n    }\n\n    function setName(string _name) public onlyOwner {\n    name = _name;\n  }\n\n    function addCourse(\n        bytes32 _code,\n        string _name,\n        uint _cost,\n        uint _duration,\n        uint _threshold,\n        bytes32[] _codes) public onlyOwner {\n        courses[_code] = Course({\n            name : _name,\n            cost : _cost,\n            duration : _duration,\n            threshold : _threshold,\n            codes : _codes\n            });\n    }\n\n    function getCourse(bytes32 _code) public view onlyOwner returns (string, uint, uint, uint, bytes32[]) {\n        Course storage course = courses[_code];\n        return (course.name, course.cost, course.duration, course.threshold, course.codes);\n    }\n\n    function subscribe(\n        bytes32 _code,\n        string _fname,\n        string _lname,\n        uint _age,\n        string _email\n    ) public payable {\n        require(msg.value == 3 ether, \"You haven't sent exactly 3 ether\");\n        Course storage course = courses[_code];\n        course.students[msg.sender] = Student({\n            fname : _fname,\n            lname : _lname,\n            age : _age,\n            email : _email,\n            codes : new bytes32[](0)\n            });\n    }\n}",
  "sourcePath": "/home/camilo/Curso_block/curso_blockchain3/contracts/Certifier.sol",
  "compiler": {
    "name": "solc",
    "version": "0.4.24+commit.e67f0147.Emscripten.clang"
  },
  "schemaVersion": "2.0.1",
  "updatedAt": "2018-11-30T02:08:08.246Z"
}